{
  "_format": "hh-sol-artifact-1",
  "contractName": "SingleSwapToken",
  "sourceName": "contracts/SingleSwapToken.sol",
  "abi": [
    {
      "inputs": [],
      "name": "SWAP_ROUTER",
      "outputs": [
        {
          "internalType": "contract ISwapRouter",
          "name": "",
          "type": "address"
        }
      ],
      "stateMutability": "view",
      "type": "function"
    },
    {
      "inputs": [
        {
          "internalType": "address",
          "name": "token1",
          "type": "address"
        },
        {
          "internalType": "address",
          "name": "token2",
          "type": "address"
        },
        {
          "internalType": "uint256",
          "name": "amountIn",
          "type": "uint256"
        }
      ],
      "name": "swapExactInputSingle",
      "outputs": [
        {
          "internalType": "uint256",
          "name": "amountOut",
          "type": "uint256"
        }
      ],
      "stateMutability": "nonpayable",
      "type": "function"
    },
    {
      "inputs": [
        {
          "internalType": "address",
          "name": "token1",
          "type": "address"
        },
        {
          "internalType": "address",
          "name": "token2",
          "type": "address"
        },
        {
          "internalType": "uint256",
          "name": "amountOut",
          "type": "uint256"
        },
        {
          "internalType": "uint256",
          "name": "amountInMaximum",
          "type": "uint256"
        }
      ],
      "name": "swapExactOutputSingle",
      "outputs": [
        {
          "internalType": "uint256",
          "name": "amountIn",
          "type": "uint256"
        }
      ],
      "stateMutability": "nonpayable",
      "type": "function"
    }
  ],
  "bytecode": "0x608060405234801561001057600080fd5b50610925806100206000396000f3fe608060405234801561001057600080fd5b50600436106100415760003560e01c8063bc96faa914610046578063c60058931461006f578063ceb9201214610084575b600080fd5b610059610054366004610800565b610097565b60405161006691906108e6565b60405180910390f35b6100776101eb565b60405161006691906108bd565b6100596100923660046107c5565b610203565b60006100a585333085610321565b6100c48573e592427a0aece92de3edee1f18e0157c05861564846104ac565b60408051610100810182526001600160a01b03808816825286166020820152610bb88183015233606082015242608082015260a0810185905260c08101849052600060e082015290517fdb3e219800000000000000000000000000000000000000000000000000000000815273e592427a0aece92de3edee1f18e0157c058615649063db3e21989061015a9084906004016108d1565b602060405180830381600087803b15801561017457600080fd5b505af1158015610188573d6000803e3d6000fd5b505050506040513d601f19601f820116820180604052508101906101ac9190610841565b9150828210156101e2576101d58673e592427a0aece92de3edee1f18e0157c05861564846104ac565b6101e2863384860361062e565b50949350505050565b73e592427a0aece92de3edee1f18e0157c0586156481565b600061021184333085610321565b6102308473e592427a0aece92de3edee1f18e0157c05861564846104ac565b60408051610100810182526001600160a01b03808716825285166020820152610bb88183015233606082015242608082015260a08101849052600060c0820181905260e082015290517f414bf38900000000000000000000000000000000000000000000000000000000815273e592427a0aece92de3edee1f18e0157c058615649063414bf389906102c69084906004016108d1565b602060405180830381600087803b1580156102e057600080fd5b505af11580156102f4573d6000803e3d6000fd5b505050506040513d601f19601f820116820180604052508101906103189190610841565b95945050505050565b604080516001600160a01b0385811660248301528481166044830152606480830185905283518084039091018152608490920183526020820180516001600160e01b03167f23b872dd00000000000000000000000000000000000000000000000000000000178152925182516000948594938a169392918291908083835b602083106103be5780518252601f19909201916020918201910161039f565b6001836020036101000a0380198251168184511680821785525050505050509050019150506000604051808303816000865af19150503d8060008114610420576040519150601f19603f3d011682016040523d82523d6000602084013e610425565b606091505b5091509150818015610453575080511580610453575080806020019051602081101561045057600080fd5b50515b6104a4576040805162461bcd60e51b815260206004820152600360248201527f5354460000000000000000000000000000000000000000000000000000000000604482015290519081900360640190fd5b505050505050565b604080516001600160a01b038481166024830152604480830185905283518084039091018152606490920183526020820180516001600160e01b03167f095ea7b3000000000000000000000000000000000000000000000000000000001781529251825160009485949389169392918291908083835b602083106105415780518252601f199092019160209182019101610522565b6001836020036101000a0380198251168184511680821785525050505050509050019150506000604051808303816000865af19150503d80600081146105a3576040519150601f19603f3d011682016040523d82523d6000602084013e6105a8565b606091505b50915091508180156105d65750805115806105d657508080602001905160208110156105d357600080fd5b50515b610627576040805162461bcd60e51b815260206004820152600260248201527f5341000000000000000000000000000000000000000000000000000000000000604482015290519081900360640190fd5b5050505050565b604080516001600160a01b038481166024830152604480830185905283518084039091018152606490920183526020820180516001600160e01b03167fa9059cbb000000000000000000000000000000000000000000000000000000001781529251825160009485949389169392918291908083835b602083106106c35780518252601f1990920191602091820191016106a4565b6001836020036101000a0380198251168184511680821785525050505050509050019150506000604051808303816000865af19150503d8060008114610725576040519150601f19603f3d011682016040523d82523d6000602084013e61072a565b606091505b5091509150818015610758575080511580610758575080806020019051602081101561075557600080fd5b50515b610627576040805162461bcd60e51b815260206004820152600260248201527f5354000000000000000000000000000000000000000000000000000000000000604482015290519081900360640190fd5b80356001600160a01b03811681146107c057600080fd5b919050565b6000806000606084860312156107d9578283fd5b6107e2846107a9565b92506107f0602085016107a9565b9150604084013590509250925092565b60008060008060808587031215610815578081fd5b61081e856107a9565b935061082c602086016107a9565b93969395505050506040820135916060013590565b600060208284031215610852578081fd5b5051919050565b6001600160a01b0380825116835280602083015116602084015262ffffff60408301511660408401528060608301511660608401526080820151608084015260a082015160a084015260c082015160c08401528060e08301511660e0840152505050565b6001600160a01b0391909116815260200190565b61010081016108e08284610859565b92915050565b9081526020019056fea26469706673582212208a2f6bedf461c9b37bef98d46de4844d74709a11b50a5ea95b26df1e68fa89d864736f6c63430007060033",
  "linkReferences": {},
  "deployedLinkReferences": {}
}