{
  "_format": "hh-sol-artifact-1",
  "contractName": "SingleSwapToken",
  "sourceName": "contracts/SingleSwapToken.sol",
  "abi": [
    {
      "inputs": [],
      "name": "DAI",
      "outputs": [
        {
          "internalType": "address",
          "name": "",
          "type": "address"
        }
      ],
      "stateMutability": "view",
      "type": "function"
    },
    {
      "inputs": [],
      "name": "SWAP_ROUTER",
      "outputs": [
        {
          "internalType": "contract ISwapRouter",
          "name": "",
          "type": "address"
        }
      ],
      "stateMutability": "view",
      "type": "function"
    },
    {
      "inputs": [],
      "name": "USDC",
      "outputs": [
        {
          "internalType": "address",
          "name": "",
          "type": "address"
        }
      ],
      "stateMutability": "view",
      "type": "function"
    },
    {
      "inputs": [],
      "name": "WETH9",
      "outputs": [
        {
          "internalType": "address",
          "name": "",
          "type": "address"
        }
      ],
      "stateMutability": "view",
      "type": "function"
    },
    {
      "inputs": [
        {
          "internalType": "uint256",
          "name": "amountIn",
          "type": "uint256"
        }
      ],
      "name": "swapExactInputSingle",
      "outputs": [
        {
          "internalType": "uint256",
          "name": "amountOut",
          "type": "uint256"
        }
      ],
      "stateMutability": "nonpayable",
      "type": "function"
    },
    {
      "inputs": [
        {
          "internalType": "uint256",
          "name": "amountOut",
          "type": "uint256"
        },
        {
          "internalType": "uint256",
          "name": "amountInMaximum",
          "type": "uint256"
        }
      ],
      "name": "swapExactOutputSingle",
      "outputs": [
        {
          "internalType": "uint256",
          "name": "amountIn",
          "type": "uint256"
        }
      ],
      "stateMutability": "nonpayable",
      "type": "function"
    }
  ],
  "bytecode": "0x608060405234801561001057600080fd5b5061105b806100206000396000f3fe608060405234801561001057600080fd5b50600436106100625760003560e01c80634aa4a4fc1461006757806373bd43ad1461008557806389a30271146100b5578063c4b69a18146100d3578063c600589314610103578063e0bab4c414610121575b600080fd5b61006f61013f565b60405161007c91906109b0565b60405180910390f35b61009f600480360381019061009a9190610a06565b610157565b6040516100ac9190610a42565b60405180910390f35b6100bd61030b565b6040516100ca91906109b0565b60405180910390f35b6100ed60048036038101906100e89190610a5d565b610323565b6040516100fa9190610a42565b60405180910390f35b61010b61053d565b6040516101189190610afc565b60405180910390f35b610129610555565b60405161013691906109b0565b60405180910390f35b73c02aaa39b223fe8d0a0e5c4f27ead9083c756cc281565b600061017973c02aaa39b223fe8d0a0e5c4f27ead9083c756cc233308561056d565b6101ac73c02aaa39b223fe8d0a0e5c4f27ead9083c756cc273e592427a0aece92de3edee1f18e0157c05861564846106c5565b600060405180610100016040528073c02aaa39b223fe8d0a0e5c4f27ead9083c756cc273ffffffffffffffffffffffffffffffffffffffff168152602001736b175474e89094c44da98b954eedeac495271d0f73ffffffffffffffffffffffffffffffffffffffff168152602001610bb862ffffff1681526020013373ffffffffffffffffffffffffffffffffffffffff16815260200142815260200184815260200160008152602001600073ffffffffffffffffffffffffffffffffffffffff16815250905073e592427a0aece92de3edee1f18e0157c0586156473ffffffffffffffffffffffffffffffffffffffff1663414bf389826040518263ffffffff1660e01b81526004016102c09190610c04565b6020604051808303816000875af11580156102df573d6000803e3d6000fd5b505050506040513d601f19601f820116820180604052508101906103039190610c35565b915050919050565b73a0b86991c6218b36c1d19d4a2e9eb0ce3606eb4881565b600061034573c02aaa39b223fe8d0a0e5c4f27ead9083c756cc233308561056d565b61037873c02aaa39b223fe8d0a0e5c4f27ead9083c756cc273e592427a0aece92de3edee1f18e0157c05861564846106c5565b600060405180610100016040528073c02aaa39b223fe8d0a0e5c4f27ead9083c756cc273ffffffffffffffffffffffffffffffffffffffff168152602001736b175474e89094c44da98b954eedeac495271d0f73ffffffffffffffffffffffffffffffffffffffff168152602001610bb862ffffff1681526020013373ffffffffffffffffffffffffffffffffffffffff168152602001428152602001858152602001848152602001600073ffffffffffffffffffffffffffffffffffffffff16815250905073e592427a0aece92de3edee1f18e0157c0586156473ffffffffffffffffffffffffffffffffffffffff1663db3e2198826040518263ffffffff1660e01b815260040161048b9190610d04565b6020604051808303816000875af11580156104aa573d6000803e3d6000fd5b505050506040513d601f19601f820116820180604052508101906104ce9190610c35565b9150828210156105365761050b73c02aaa39b223fe8d0a0e5c4f27ead9083c756cc273e592427a0aece92de3edee1f18e0157c05861564846106c5565b61053573c02aaa39b223fe8d0a0e5c4f27ead9083c756cc23384866105309190610d4f565b61081a565b5b5092915050565b73e592427a0aece92de3edee1f18e0157c0586156481565b736b175474e89094c44da98b954eedeac495271d0f81565b6000808573ffffffffffffffffffffffffffffffffffffffff166323b872dd60e01b8686866040516024016105a493929190610d83565b604051602081830303815290604052907bffffffffffffffffffffffffffffffffffffffffffffffffffffffff19166020820180517bffffffffffffffffffffffffffffffffffffffffffffffffffffffff838183161783525050505060405161060e9190610e2b565b6000604051808303816000865af19150503d806000811461064b576040519150601f19603f3d011682016040523d82523d6000602084013e610650565b606091505b509150915081801561067e575060008151148061067d57508080602001905181019061067c9190610e7a565b5b5b6106bd576040517f08c379a00000000000000000000000000000000000000000000000000000000081526004016106b490610f04565b60405180910390fd5b505050505050565b6000808473ffffffffffffffffffffffffffffffffffffffff1663095ea7b360e01b85856040516024016106fa929190610f24565b604051602081830303815290604052907bffffffffffffffffffffffffffffffffffffffffffffffffffffffff19166020820180517bffffffffffffffffffffffffffffffffffffffffffffffffffffffff83818316178352505050506040516107649190610e2b565b6000604051808303816000865af19150503d80600081146107a1576040519150601f19603f3d011682016040523d82523d6000602084013e6107a6565b606091505b50915091508180156107d457506000815114806107d35750808060200190518101906107d29190610e7a565b5b5b610813576040517f08c379a000000000000000000000000000000000000000000000000000000000815260040161080a90610f99565b60405180910390fd5b5050505050565b6000808473ffffffffffffffffffffffffffffffffffffffff1663a9059cbb60e01b858560405160240161084f929190610f24565b604051602081830303815290604052907bffffffffffffffffffffffffffffffffffffffffffffffffffffffff19166020820180517bffffffffffffffffffffffffffffffffffffffffffffffffffffffff83818316178352505050506040516108b99190610e2b565b6000604051808303816000865af19150503d80600081146108f6576040519150601f19603f3d011682016040523d82523d6000602084013e6108fb565b606091505b509150915081801561092957506000815114806109285750808060200190518101906109279190610e7a565b5b5b610968576040517f08c379a000000000000000000000000000000000000000000000000000000000815260040161095f90611005565b60405180910390fd5b5050505050565b600073ffffffffffffffffffffffffffffffffffffffff82169050919050565b600061099a8261096f565b9050919050565b6109aa8161098f565b82525050565b60006020820190506109c560008301846109a1565b92915050565b600080fd5b6000819050919050565b6109e3816109d0565b81146109ee57600080fd5b50565b600081359050610a00816109da565b92915050565b600060208284031215610a1c57610a1b6109cb565b5b6000610a2a848285016109f1565b91505092915050565b610a3c816109d0565b82525050565b6000602082019050610a576000830184610a33565b92915050565b60008060408385031215610a7457610a736109cb565b5b6000610a82858286016109f1565b9250506020610a93858286016109f1565b9150509250929050565b6000819050919050565b6000610ac2610abd610ab88461096f565b610a9d565b61096f565b9050919050565b6000610ad482610aa7565b9050919050565b6000610ae682610ac9565b9050919050565b610af681610adb565b82525050565b6000602082019050610b116000830184610aed565b92915050565b610b208161098f565b82525050565b600062ffffff82169050919050565b610b3e81610b26565b82525050565b610b4d816109d0565b82525050565b610b5c8161096f565b82525050565b61010082016000820151610b796000850182610b17565b506020820151610b8c6020850182610b17565b506040820151610b9f6040850182610b35565b506060820151610bb26060850182610b17565b506080820151610bc56080850182610b44565b5060a0820151610bd860a0850182610b44565b5060c0820151610beb60c0850182610b44565b5060e0820151610bfe60e0850182610b53565b50505050565b600061010082019050610c1a6000830184610b62565b92915050565b600081519050610c2f816109da565b92915050565b600060208284031215610c4b57610c4a6109cb565b5b6000610c5984828501610c20565b91505092915050565b61010082016000820151610c796000850182610b17565b506020820151610c8c6020850182610b17565b506040820151610c9f6040850182610b35565b506060820151610cb26060850182610b17565b506080820151610cc56080850182610b44565b5060a0820151610cd860a0850182610b44565b5060c0820151610ceb60c0850182610b44565b5060e0820151610cfe60e0850182610b53565b50505050565b600061010082019050610d1a6000830184610c62565b92915050565b7f4e487b7100000000000000000000000000000000000000000000000000000000600052601160045260246000fd5b6000610d5a826109d0565b9150610d65836109d0565b9250828203905081811115610d7d57610d7c610d20565b5b92915050565b6000606082019050610d9860008301866109a1565b610da560208301856109a1565b610db26040830184610a33565b949350505050565b600081519050919050565b600081905092915050565b60005b83811015610dee578082015181840152602081019050610dd3565b60008484015250505050565b6000610e0582610dba565b610e0f8185610dc5565b9350610e1f818560208601610dd0565b80840191505092915050565b6000610e378284610dfa565b915081905092915050565b60008115159050919050565b610e5781610e42565b8114610e6257600080fd5b50565b600081519050610e7481610e4e565b92915050565b600060208284031215610e9057610e8f6109cb565b5b6000610e9e84828501610e65565b91505092915050565b600082825260208201905092915050565b7f5354460000000000000000000000000000000000000000000000000000000000600082015250565b6000610eee600383610ea7565b9150610ef982610eb8565b602082019050919050565b60006020820190508181036000830152610f1d81610ee1565b9050919050565b6000604082019050610f3960008301856109a1565b610f466020830184610a33565b9392505050565b7f5341000000000000000000000000000000000000000000000000000000000000600082015250565b6000610f83600283610ea7565b9150610f8e82610f4d565b602082019050919050565b60006020820190508181036000830152610fb281610f76565b9050919050565b7f5354000000000000000000000000000000000000000000000000000000000000600082015250565b6000610fef600283610ea7565b9150610ffa82610fb9565b602082019050919050565b6000602082019050818103600083015261101e81610fe2565b905091905056fea2646970667358221220428f390675c55817cd89d48c2541b68f2cb1f7f1d40dd5f018776b3cc041a54764736f6c63430008110033",
  "linkReferences": {},
  "deployedLinkReferences": {}
}