{
  "_format": "hh-sol-artifact-1",
  "contractName": "SwapMultiHop",
  "sourceName": "contracts/SwapMultiHop.sol",
  "abi": [
    {
      "inputs": [],
      "name": "DAI",
      "outputs": [
        {
          "internalType": "address",
          "name": "",
          "type": "address"
        }
      ],
      "stateMutability": "view",
      "type": "function"
    },
    {
      "inputs": [],
      "name": "SWAP_ROUTER",
      "outputs": [
        {
          "internalType": "contract ISwapRouter",
          "name": "",
          "type": "address"
        }
      ],
      "stateMutability": "view",
      "type": "function"
    },
    {
      "inputs": [],
      "name": "USDC",
      "outputs": [
        {
          "internalType": "address",
          "name": "",
          "type": "address"
        }
      ],
      "stateMutability": "view",
      "type": "function"
    },
    {
      "inputs": [],
      "name": "WETH9",
      "outputs": [
        {
          "internalType": "address",
          "name": "",
          "type": "address"
        }
      ],
      "stateMutability": "view",
      "type": "function"
    },
    {
      "inputs": [
        {
          "internalType": "uint256",
          "name": "amountIn",
          "type": "uint256"
        }
      ],
      "name": "swapExactInputMultiHop",
      "outputs": [
        {
          "internalType": "uint256",
          "name": "amountOut",
          "type": "uint256"
        }
      ],
      "stateMutability": "nonpayable",
      "type": "function"
    },
    {
      "inputs": [
        {
          "internalType": "uint256",
          "name": "amountOut",
          "type": "uint256"
        },
        {
          "internalType": "uint256",
          "name": "amountInMaximum",
          "type": "uint256"
        }
      ],
      "name": "swapExactOutputMultiHop",
      "outputs": [
        {
          "internalType": "uint256",
          "name": "amountIn",
          "type": "uint256"
        }
      ],
      "stateMutability": "nonpayable",
      "type": "function"
    }
  ],
  "bytecode": "0x608060405234801561001057600080fd5b50610f2b806100206000396000f3fe608060405234801561001057600080fd5b50600436106100625760003560e01c80634aa4a4fc1461006757806357688eda1461008557806389a30271146100b5578063c6005893146100d3578063d05d4cdd146100f1578063e0bab4c414610121575b600080fd5b61006f61013f565b60405161007c919061081e565b60405180910390f35b61009f600480360381019061009a9190610874565b610157565b6040516100ac91906108b0565b60405180910390f35b6100bd6102ec565b6040516100ca919061081e565b60405180910390f35b6100db610304565b6040516100e8919061092a565b60405180910390f35b61010b60048036038101906101069190610945565b61031c565b60405161011891906108b0565b60405180910390f35b610129610518565b604051610136919061081e565b60405180910390f35b73c02aaa39b223fe8d0a0e5c4f27ead9083c756cc281565b600061017973c02aaa39b223fe8d0a0e5c4f27ead9083c756cc2333085610530565b6101ac73c02aaa39b223fe8d0a0e5c4f27ead9083c756cc273e592427a0aece92de3edee1f18e0157c0586156484610688565b60006040518060a0016040528073c02aaa39b223fe8d0a0e5c4f27ead9083c756cc2610bb873a0b86991c6218b36c1d19d4a2e9eb0ce3606eb486064736b175474e89094c44da98b954eedeac495271d0f604051602001610211959493929190610a12565b60405160208183030381529060405281526020013373ffffffffffffffffffffffffffffffffffffffff1681526020014281526020018481526020016000815250905073e592427a0aece92de3edee1f18e0157c0586156473ffffffffffffffffffffffffffffffffffffffff1663c04b8d59826040518263ffffffff1660e01b81526004016102a19190610b95565b6020604051808303816000875af11580156102c0573d6000803e3d6000fd5b505050506040513d601f19601f820116820180604052508101906102e49190610bcc565b915050919050565b73a0b86991c6218b36c1d19d4a2e9eb0ce3606eb4881565b73e592427a0aece92de3edee1f18e0157c0586156481565b600061033e73c02aaa39b223fe8d0a0e5c4f27ead9083c756cc2333085610530565b61037173c02aaa39b223fe8d0a0e5c4f27ead9083c756cc273e592427a0aece92de3edee1f18e0157c0586156484610688565b60006040518060a00160405280736b175474e89094c44da98b954eedeac495271d0f606473a0b86991c6218b36c1d19d4a2e9eb0ce3606eb48610bb873c02aaa39b223fe8d0a0e5c4f27ead9083c756cc26040516020016103d6959493929190610a12565b60405160208183030381529060405281526020013373ffffffffffffffffffffffffffffffffffffffff16815260200142815260200185815260200184815250905073e592427a0aece92de3edee1f18e0157c0586156473ffffffffffffffffffffffffffffffffffffffff1663f28c0498826040518263ffffffff1660e01b81526004016104659190610c6f565b6020604051808303816000875af1158015610484573d6000803e3d6000fd5b505050506040513d601f19601f820116820180604052508101906104a89190610bcc565b915082821015610511576104e573c02aaa39b223fe8d0a0e5c4f27ead9083c756cc273e592427a0aece92de3edee1f18e0157c0586156484610688565b61051073c02aaa39b223fe8d0a0e5c4f27ead9083c756cc23033858761050b9190610cc0565b610530565b5b5092915050565b736b175474e89094c44da98b954eedeac495271d0f81565b6000808573ffffffffffffffffffffffffffffffffffffffff166323b872dd60e01b86868660405160240161056793929190610cf4565b604051602081830303815290604052907bffffffffffffffffffffffffffffffffffffffffffffffffffffffff19166020820180517bffffffffffffffffffffffffffffffffffffffffffffffffffffffff83818316178352505050506040516105d19190610d67565b6000604051808303816000865af19150503d806000811461060e576040519150601f19603f3d011682016040523d82523d6000602084013e610613565b606091505b5091509150818015610641575060008151148061064057508080602001905181019061063f9190610db6565b5b5b610680576040517f08c379a000000000000000000000000000000000000000000000000000000000815260040161067790610e40565b60405180910390fd5b505050505050565b6000808473ffffffffffffffffffffffffffffffffffffffff1663095ea7b360e01b85856040516024016106bd929190610e60565b604051602081830303815290604052907bffffffffffffffffffffffffffffffffffffffffffffffffffffffff19166020820180517bffffffffffffffffffffffffffffffffffffffffffffffffffffffff83818316178352505050506040516107279190610d67565b6000604051808303816000865af19150503d8060008114610764576040519150601f19603f3d011682016040523d82523d6000602084013e610769565b606091505b509150915081801561079757506000815114806107965750808060200190518101906107959190610db6565b5b5b6107d6576040517f08c379a00000000000000000000000000000000000000000000000000000000081526004016107cd90610ed5565b60405180910390fd5b5050505050565b600073ffffffffffffffffffffffffffffffffffffffff82169050919050565b6000610808826107dd565b9050919050565b610818816107fd565b82525050565b6000602082019050610833600083018461080f565b92915050565b600080fd5b6000819050919050565b6108518161083e565b811461085c57600080fd5b50565b60008135905061086e81610848565b92915050565b60006020828403121561088a57610889610839565b5b60006108988482850161085f565b91505092915050565b6108aa8161083e565b82525050565b60006020820190506108c560008301846108a1565b92915050565b6000819050919050565b60006108f06108eb6108e6846107dd565b6108cb565b6107dd565b9050919050565b6000610902826108d5565b9050919050565b6000610914826108f7565b9050919050565b61092481610909565b82525050565b600060208201905061093f600083018461091b565b92915050565b6000806040838503121561095c5761095b610839565b5b600061096a8582860161085f565b925050602061097b8582860161085f565b9150509250929050565b60008160601b9050919050565b600061099d82610985565b9050919050565b60006109af82610992565b9050919050565b6109c76109c2826107fd565b6109a4565b82525050565b600062ffffff82169050919050565b60008160e81b9050919050565b60006109f4826109dc565b9050919050565b610a0c610a07826109cd565b6109e9565b82525050565b6000610a1e82886109b6565b601482019150610a2e82876109fb565b600382019150610a3e82866109b6565b601482019150610a4e82856109fb565b600382019150610a5e82846109b6565b6014820191508190509695505050505050565b600081519050919050565b600082825260208201905092915050565b60005b83811015610aab578082015181840152602081019050610a90565b60008484015250505050565b6000601f19601f8301169050919050565b6000610ad382610a71565b610add8185610a7c565b9350610aed818560208601610a8d565b610af681610ab7565b840191505092915050565b610b0a816107fd565b82525050565b610b198161083e565b82525050565b600060a0830160008301518482036000860152610b3c8282610ac8565b9150506020830151610b516020860182610b01565b506040830151610b646040860182610b10565b506060830151610b776060860182610b10565b506080830151610b8a6080860182610b10565b508091505092915050565b60006020820190508181036000830152610baf8184610b1f565b905092915050565b600081519050610bc681610848565b92915050565b600060208284031215610be257610be1610839565b5b6000610bf084828501610bb7565b91505092915050565b600060a0830160008301518482036000860152610c168282610ac8565b9150506020830151610c2b6020860182610b01565b506040830151610c3e6040860182610b10565b506060830151610c516060860182610b10565b506080830151610c646080860182610b10565b508091505092915050565b60006020820190508181036000830152610c898184610bf9565b905092915050565b7f4e487b7100000000000000000000000000000000000000000000000000000000600052601160045260246000fd5b6000610ccb8261083e565b9150610cd68361083e565b9250828203905081811115610cee57610ced610c91565b5b92915050565b6000606082019050610d09600083018661080f565b610d16602083018561080f565b610d2360408301846108a1565b949350505050565b600081905092915050565b6000610d4182610a71565b610d4b8185610d2b565b9350610d5b818560208601610a8d565b80840191505092915050565b6000610d738284610d36565b915081905092915050565b60008115159050919050565b610d9381610d7e565b8114610d9e57600080fd5b50565b600081519050610db081610d8a565b92915050565b600060208284031215610dcc57610dcb610839565b5b6000610dda84828501610da1565b91505092915050565b600082825260208201905092915050565b7f5354460000000000000000000000000000000000000000000000000000000000600082015250565b6000610e2a600383610de3565b9150610e3582610df4565b602082019050919050565b60006020820190508181036000830152610e5981610e1d565b9050919050565b6000604082019050610e75600083018561080f565b610e8260208301846108a1565b9392505050565b7f5341000000000000000000000000000000000000000000000000000000000000600082015250565b6000610ebf600283610de3565b9150610eca82610e89565b602082019050919050565b60006020820190508181036000830152610eee81610eb2565b905091905056fea26469706673582212203563411fba0f56a4ade5a5f36b00692b63971e950874f8974d18089d6370d58164736f6c63430008110033",
  "linkReferences": {},
  "deployedLinkReferences": {}
}